:020000040800F2
:10000000C807002045010008D5030008CD030008FB
:10001000D10300088D010008B90A000800000000A3
:10002000000000000000000000000000B106000811
:10003000E5010008000000008D0400089D0700088D
:100040005F0100085F0100085F0100085F01000810
:100050005F0100085F010008E9010008390200089B
:100060005F0100085F0100085F0100085F010008F0
:100070005F0100085F0100085F0100085F010008E0
:100080005F0100085F0100085F0100085F010008D0
:100090005F0100085F0100085F0100085F010008C0
:1000A0005F0100085F0100085F0100085F010008B0
:1000B0005F0100085F0100085F0100085F010008A0
:1000C0005F0100085F0100085F0100085F01000890
:1000D0005F01000801080008250800085F0100080A
:1000E0005F0100085F0100085F0100085F01000870
:1000F0005F0100085F0100085F0100085F01000860
:100100005F0100085F0100085F0100085F0100084F
:100110005F0100085F0100085F0100085F0100083F
:100120005F0100085F0100085F0100085F0100082F
:10013000DFF80CD000F018F800480047890B0008E1
:10014000C80700200648804706480047FEE7FEE74C
:10015000FEE7FEE7FEE7FEE7FEE7FEE7FEE7FEE777
:10016000A107000831010008064C074D06E0E068D1
:1001700040F0010394E8070098471034AC42F6D3EE
:10018000FFF7DAFF900C0008B00C000800BFFEE794
:1001900021B1026842F00102026004E002684FF6F9
:1001A000FE731A400260704710B50022026847F6DD
:1001B000F0739A430C6A8B6823430C6923434C69A0
:1001C00023438C692343CC6923434C6A23438C6AC1
:1001D00023431A430260CB6843600B6883604B681B
:1001E000C36010BD7047000010B501200D490870B4
:1001F00000F040F8A0B1012000F036F801210A48D3
:1002000000F0D7F820B10821074800F0DDF803E03E
:100210000821054800F0D6F804A1064800F05DFC6E
:1002200010BD000008000020000801404558544956
:10023000300000000038014010B5022000F01AF82C
:1002400050B1022000F010F804A1064800F045FC6F
:100250004FF47A7000F065FC10BD00004558544919
:100260003400000000380140014908607047000078
:1002700014040140014600200022074B1B6803EADA
:100280000102054B14331B680B4013B10AB1012066
:1002900000E0002070470000000401402DE9F0411B
:1002A000024600250026002000230024002791F8A4
:1002B00003C00CF00F0591F803C00CF0100CBCF15A
:1002C000000F03D091F802C04CEA050591F800C078
:1002D000BCF1000F31D0146800202BE04FF0010C6E
:1002E0000CFA00F3B1F800C00CEA03069E4220D1DC
:1002F00083004FF00F0C0CFA03F7BC4305FA03FC24
:100300004CEA040491F803C0BCF1280F06D14FF069
:10031000010C0CFA00FCC2F814C00AE091F803C00A
:10032000BCF1480F05D14FF0010C0CFA00FCC2F8EB
:1003300010C0401C0828D1D31460B1F800C0BCF133
:10034000FF0F34DD546800202EE000F1080C4FF060
:10035000010808FA0CF3B1F800C00CEA03069E424B
:1003600021D183004FF00F0C0CFA03F7BC4305FAC0
:1003700003FC4CEA040491F803C0BCF1280F05D13A
:1003800000F1080C08FA0CF8C2F8148091F803C0C8
:10039000BCF1480F07D100F1080C4FF0010808FA32
:1003A0000CF8C2F81080401C0828CED35460BDE879
:1003B000F0810246002093680B400BB1012000E061
:1003C00000207047416170470161704700BFFEE740
:1003D00000BFFEE77047000038B504464FF4C06028
:1003E00000F04AF8074810F814008DF800000120CA
:1003F0008DF801008DF802008DF80300684600F0CA
:1004000003F838BD1600002070B5002100230F222C
:10041000C47804B3154C246804F4E064C4F5E064C3
:10042000210AC1F10403CA40447804FA03F1847834
:100430001440214309010E4C0678A155047804F0BC
:100440001F050124AC4005786D11AD0005F1E025D4
:10045000C5F8004109E0047804F01F050124AC4010
:10046000044D0678761145F8264070BD0CED00E08D
:1004700000E400E080E100E002490143024A11602B
:10048000704700000000FA050CED00E07047000026
:1004900029B1064A52690243044B5A6104E0034AF7
:1004A00052698243014B5A617047000000100240BC
:1004B00029B1064AD2690243044BDA6104E0034AD7
:1004C000D2698243014BDA6170470000001002409C
:1004D00029B1064A92690243044B9A6104E0034A37
:1004E00092698243014B9A617047000000100240FC
:1004F00030B500210022002400232D4D6D6805F049
:100500000C0121B1042905D0082923D105E0294D8A
:10051000056022E0274D05601FE0254D6D6805F45C
:100520007012234D6D6805F48034022505EB92426C
:100530001CB9214D554305600BE01D4D6D6805F458
:1005400000351DB11C4D5543056002E0194D554362
:10055000056002E0174D056000BF00BF144D6D68D7
:1005600005F0F0010909154D6B5C0568DD4045603B
:100570000F4D6D6805F4E061090A104D6B5C45682C
:10058000DD4085600A4D6D6805F46051C90A0B4D68
:100590006B5C4568DD40C560054D6D6805F4404104
:1005A000890B074D6B5CC568B5FBF3F5056130BD84
:1005B0000010024000127A0000093D006C0000208B
:1005C0007C00002030B585B004460D4664B9304942
:1005D00031F814000121FFF77BFF2E4951F8240068
:1005E0000121FFF775FF0BE0294931F814000121C3
:1005F000FFF76EFF274951F824000121FFF758FF4C
:10060000254830F81400ADF8100018208DF81300BC
:1006100003208DF81200214951F8240004A9FFF7A6
:100620003DFE1F4830F81400ADF8100004208DF88E
:1006300013001C4951F8240004A9FFF72FFE1A48A3
:1006400050F8240000900020ADF80400ADF806003A
:10065000ADF80800ADF80C000C20ADF80A00134905
:1006600051F82400694600F061F92046FFF7B4FE16
:100670000E4951F82400012240F2255100F030F9D2
:100680000A4951F82400012100F0DEF805B030BD20
:1006900048000020880C0008540000204C00002076
:1006A000600000205800002040000020380000209A
:1006B000704710B500F002F810BD00000CB5002026
:1006C000019000903348006840F480303149086060
:1006D00000BF3048006800F4003000900198401CD2
:1006E0000190009818B90198B0F5A06FF1D1294890
:1006F000006800F4003010B10120009001E00020FB
:1007000000900098012843D12348006840F0100071
:10071000214908600846006820F003000860084688
:10072000006840F0020008601A48406819494860B3
:100730000846406848600846406840F48060486069
:100740000846406820F47C1048600846406840F441
:10075000E81048600846006840F08070086000BFFC
:100760000C48006800F000700028F9D00948406883
:1007700020F00300074948600846406840F0020046
:10078000486000BF0348406800F00C000828F9D119
:100790000CBD000000100240002002407047000025
:1007A00010B51348006840F0010011490860084680
:1007B0004068104908400E494860084600680E49E4
:1007C00008400B4908600846006820F48020086053
:1007D0000846406820F4FE0048604FF41F0088601F
:1007E000FFF767FF4FF000600449086010BD00008C
:1007F000001002400000FFF8FFFFF6FE08ED00E0E9
:1008000010B540F22551064800F040F838B10448D0
:1008100000F0F8F8C4B22146014800F0F8F810BD25
:100820000038014010B540F22551064800F02EF87E
:1008300038B1044800F0E6F8C4B22146014800F09F
:10084000E6F810BD0044004021B1828942F4005214
:10085000828104E082894DF6FF731A4082817047DD
:100860001AB1838A0B43838202E0838A8B4383829B
:10087000704702460020B1F5007F00D100BF138809
:100880000B400BB1012000E00020704770B502461C
:10089000002400230025002040F66A16B14200D152
:1008A00000BFC1F3421501F01F03012606FA03F34E
:1008B000012D02D19689334006E0022D02D1168A1D
:1008C000334001E0968A33400C12012606FA04F404
:1008D0001688344013B10CB1012000E0002070BD37
:1008E000F0B50346002400260025002040F66A17D4
:1008F000B94200D100BF1846C1F3421401F01F06EF
:10090000012707FA06F5012C01D10C3004E0022C76
:1009100001D1103000E014301AB107682F4307608E
:1009200002E00768AF430760F0BD00002DE9F04723
:1009300086B005460E460024A24600BFA146002709
:10094000B08900B100BF2F462C8A4CF6FF700440DE
:10095000F08804432C82AC894EF6F3100440B08832
:1009600031890843718908430443AC81AC8A4FF64E
:10097000FF400440B0890443AC8201A8FFF7B8FDF2
:100980001F48874202D1DDF810A001E0DDF80CA07D
:10099000A88900F4004040B10AEBCA0000EB0A103D
:1009A00031684900B0FBF1F807E00AEBCA0000EB40
:1009B0000A1031688900B0FBF1F86420B8FBF0F050
:1009C00004012009642101FB1089A88900F400407A
:1009D00040B1322000EBC900B0FBF1F000F007009D
:1009E000044308E0322000EB09106421B0FBF1F071
:1009F00000F00F0004432C8106B0BDE8F087000032
:100A00000038014001468888C0F308007047C1F3F0
:100A1000080282807047000010B58CB004464FF485
:100A2000FA7000F0EBF82049086000201F490860C8
:100A30000AE050201C4909681C4A126888541B4867
:100A40000068401C1949086018480068B0F5FA7F32
:100A5000EFDB00201449096881F8F4010121084600
:100A6000FFF716FD124801900F4800680290102011
:100A700003904FF4FA7004900020059080200690B7
:100A800000200790089020200990C0010A900020C3
:100A90000B9001A90748FFF787FB01210548FFF7E5
:100AA00077FB0CB010BD000064000020680000203F
:100AB000043801404400024000BFFEE770B5044620
:100AC0000D4629462046FFF7A2FF00BF80212046A1
:100AD000FFF7CFFE0028F9D070BD70B506460C4672
:100AE000002500BF615D3046FFF7E8FF6D1C605DCB
:100AF0000028F7D100BF40213046FFF7BAFE00289A
:100B0000F9D070BD02E008C8121F08C1002AFAD14E
:100B100070477047002001E001C1121F002AFBD17D
:100B20007047014642F228324A434FF0E0235A61AF
:100B300000229A6101221A6100BF4FF0E022106981
:100B400000F001021AB100F48032002AF5D0002230
:100B50004FF0E0231A619A617047000008B5012147
:100B60000420FFF7B5FC10208DF803000820ADF835
:100B7000000003208DF8020069460248FFF78EFB53
:100B800008BD000000080140FFF7E8FF4FF4E13026
:100B90001749086000208880C880088188810C205F
:100BA00048810020FFF70EFD0020FFF735FF1EE013
:100BB000012280210F48FFF753FE4FF4FA70FFF730
:100BC000B0FF4FF4FA70FFF7ACFF00228021094814
:100BD000FFF746FE4FF4FA70FFF7A3FF4FF4FA70E9
:100BE000FFF79FFF04480068401C03490860DFE7E7
:100BF00088000020003801400C000020F0B50B30C8
:100C0000154D20F007010024144A0FE003688B42C1
:100C10000BD38B4205D95E1A43184768C3E90067B6
:100C200000E04368136002C004E0021D1068002861
:100C3000ECD12046002802D1286808B10020F0BD80
:100C4000064A07481060074A121A22F00702C0E954
:100C5000002401202860D7E78400002080000020C5
:100C6000CC010020C803002000400000000002006A
:100C70000400000004000000040000000400000064
:100C80000002040000040800004000000000020010
:100C9000B00C00080000002088000000040B0008D1
:100CA000380D00088800002040070000140B0008E1
:100CB0000000000000000000000000000000000034
:100CC000E8030000000025002600190019000000BC
:100CD0000038014000440040000801400008014085
:100CE0000008014000080140003801400044004075
:100CF00000C2010000C2010004000400000801401D
:100D00000008014000020400000801400008014002
:100D100000040800000000000000000000000000C7
:100D2000010203040102030406070809020406087D
:080D30000000000000000000BB
:0400000508000131BD
:00000001FF
